:100000000C9434000C94E8000C9446000C94AB0063
:100010000C9446000C9446000C9446000C94460048
:100020000C9446000C9446000C9446000C94460038
:100030000C9446000C9446000C9446000C94460028
:100040000C9446000C9446000C9446000C94460018
:100050000C9446000C947B000C9446000C944600D3
:100060000C9446000C94460011241FBECFEFD8E03C
:10007000DEBFCDBF21E0A0E0B1E001C01D92A23003
:10008000B207E1F70E940C010C9422010C940000CD
:100090008CEC80937A0080E680937C000895982F02
:1000A0009170990F990F95B995B1282F2270922BC5
:1000B00095B995B182FB222720F9922B95B9982FFB
:1000C00098709295907F9BB92BB1982F9071990F52
:1000D000922B9BB92BB1982F90729695922B9BB92E
:1000E0008074982F9695969598B998B182958F704F
:1000F000892B88B908951F920F920FB60F92112481
:100100002F933F934F935F936F937F938F939F931F
:10011000AF93BF93EF93FF93ECE7F0E080818560AE
:100120008083809179000E944F00EAE7F0E08081AF
:1001300080648083FF91EF91BF91AF919F918F91E8
:100140007F916F915F914F913F912F910F900FBED3
:100150000F901F9018951F920F920FB60F921124B7
:100160002F933F934F935F936F937F938F939F93BF
:10017000AF93BF93EF93FF931C9B0CC08091000142
:1001800090910101019690930101809300010E94DA
:100190004F000DC01B9B0BC080910001909101018D
:1001A000019790930101809300010E944F00FF91FD
:1001B000EF91BF91AF919F918F917F916F915F91DF
:1001C0004F913F912F910F900FBE0F901F90189558
:1001D0001F920F920FB60F9211242F933F934F93BC
:1001E0005F936F937F938F939F93AF93BF93EF939F
:1001F000FF930E944800FF91EF91BF91AF919F91B3
:100200008F917F916F915F914F913F912F910F90BF
:100210000FBE0F901F901895F89487E084B998E16D
:1002200097B980EB8AB981E08093680090936B0066
:100230008DBB82E0809369001CBA80E00E944F0071
:080240007894FFCFF894FFCF82
:00000001FF
