:100000000C9434000C943E000C943E000C943E0082
:100010000C943E000C943E000C943E000C943E0068
:100020000C943E000C943E000C943E000C943E0058
:100030000C943E000C943E000C943E000C943E0048
:100040000C943E000C943E000C943E000C943E0038
:100050000C943E000C943E000C943E000C943E0028
:100060000C943E000C943E0011241FBECFEFD8E04C
:10007000DEBFCDBF0E9487000C9494000C9400005A
:1000800084E880937A00ECE7F0E080E6808380816A
:10009000856080830895ECE7F0E08081856080834F
:1000A000EAE7F0E0808180648083808186FDFDCF77
:1000B000809179000895982F9170990F990F95B9B3
:1000C00095B1282F2270922B95B995B182FB2227EA
:1000D00020F9922B95B9982F98709295907F9BB9A3
:1000E0002BB1982F9071990F922B9BB92BB1982F10
:1000F00090729695922B9BB98074982F96959695B1
:1001000098B998B182958F70892B88B9089587E046
:1001100084B988E187B980EB8AB90E9440000E94C7
:0C0120004B000E945B00FBCFF894FFCF67
:00000001FF
