:100000000C9434000C943E000C943E000C943E0082
:100010000C943E000C943E000C943E000C943E0068
:100020000C943E000C943E000C943E000C943E0058
:100030000C943E000C943E000C943E000C943E0048
:100040000C943E000C943E000C943E000C943E0038
:100050000C943E000C943E000C943E000C943E0028
:100060000C943E000C943E0011241FBECFEFD8E04C
:10007000DEBFCDBF0E9462000C9466000C940000AD
:10008000982F9170990F990F95B9982F927095B9F3
:1000900082FB992790F995B9982F98709295907F47
:1000A0009BB9982F9071990F9BB9982F9072969544
:1000B0009BB98074982F9695969598B982958F7074
:1000C00088B908958FE00E944000FCCFF894FFCFDC
:00000001FF
