:100000000C9434000C943E000C943E000C943E0082
:100010000C943E000C943E000C943E000C943E0068
:100020000C943E000C943E000C943E000C943E0058
:100030000C943E000C943E000C943E000C943E0048
:100040000C943E000C943E000C943E000C943E0038
:100050000C943E000C943E000C943E000C943E0028
:100060000C943E000C943E0011241FBECFEFD8E04C
:10007000DEBFCDBF0E946C000C9470000C94000099
:10008000982F9170990F990F95B995B1282F2270DB
:10009000922B95B995B182FB222720F9922B95B925
:1000A000982F98709295907F9BB92BB1982F907153
:1000B000990F922B9BB92BB1982F90729695922BFA
:1000C0009BB98074982F9695969598B998B182951A
:1000D0008F70892B88B908958FE00E944000FCCF73
:0400E000F894FFCFC2
:00000001FF
