S0160000494E54455252555043494F4E45532E73726563D4
S11300000C9434000C943E000C943E000C943E007E
S11300100C943E000C943E000C943E000C943E0064
S11300200C943E000C943E000C943E000C943E0054
S11300300C943E000C943E000C943E000C943E0044
S11300400C943E000C943E000C943E000C943E0034
S11300500C943E000C9473000C943E000C943E00EF
S11300600C943E000C943E0011241FBECFEFD8E048
S1130070DEBFCDBF0E94A3000C94AE000C94000020
S11300808CEC80937A0080E680937C000895982F0E
S11300909170990F990F95B995B1282F2270922BD1
S11300A095B995B182FB222720F9922B95B9982F07
S11300B098709295907F9BB92BB1982F9071990F5E
S11300C0922B9BB92BB1982F90729695922B9BB93A
S11300D08074982F9695969598B998B182958F705B
S11300E0892B88B908951F920F920FB60F9211248D
S11300F02F933F934F935F936F937F938F939F932C
S1130100AF93BF93EF93FF93ECE7F0E080818560BA
S11301108083809179000E944700EAE7F0E08081C3
S113012080648083FF91EF91BF91AF919F918F91F4
S11301307F916F915F914F913F912F910F900FBEDF
S11301400F901F901895F89487E084B988E187B9D7
S113015080EB8AB90E9440007894FFCFF894FFCFD7
S9030000FC
